:100000000C942A000C9447000C9447000C94470071
:100010000C9447000C9447000C9447000C94470044
:100020000C9447000C9447000C9447000C94470034
:100030000C9447000C9447000C9447000C94470024
:100040000C9447000C9447000C9447000C94470014
:100050000C94470011241FBECFE5D8E0DEBFCDBF12
:1000600010E0A0E6B0E0EEE1F7E202C005900D92EC
:10007000A83CB107D9F710E0A8ECB0E001C01D9290
:10008000A03DB107E1F70E948E0C0C948D130C94E7
:100090000000EF92FF920F931F937B018C0120E0F1
:1000A00030E040E05FE40E94490388238CF0C801FF
:1000B000B70120E030E040E05FE40E94C1010E940F
:1000C000A9039B01AC01205030404040504806C07D
:1000D000C801B7010E94A9039B01AC01B901CA0183
:1000E0001F910F91FF90EF900895A0E0B0E0EBE733
:1000F000F0E00C945613DC012B01FA019C91923034
:1001000008F439C1EB018881823008F433C194309E
:1001100069F4843009F02FC111969C91119789815F
:10012000981709F428C1A7E9B0E025C1843009F483
:1001300021C18230A9F4923009F01DC19A01AD01AC
:1001400088E0EA010990AE01E90109929E0181501F
:10015000C1F7E201898111969C918923818308C1AD
:10016000923009F407C112962D903C901397EB0141
:100170008A819B811496AD90BD90CD90DC901797AD
:10018000EC80FD800E811F819101281B390BB90184
:1001900037FF04C066277727621B730B6032710537
:1001A0000CF061C0121613066CF537014801062EDB
:1001B00004C096948794779467940A94D2F721E0C8
:1001C00030E040E050E004C0220F331F441F551FB1
:1001D0006A95D2F721503040404050402E213F21B7
:1001E00040235123211531054105510521F021E01E
:1001F00030E040E050E079018A01E628F72808293C
:1002000019293CC0232BD1F1260E371E350146019A
:10021000062E04C096948794779467940A94D2F734
:1002200021E030E040E050E004C0220F331F441FC3
:10023000551F6A95D2F721503040404050402A2146
:100240003B214C215D21211531054105510521F04E
:1002500021E030E040E050E059016A01A628B728CB
:10026000C828D9280BC0821593052CF01C01AA249C
:10027000BB24650103C0EE24FF24870111969C91E5
:10028000D20111968C91981709F445C0992339F041
:10029000A80197012A193B094C095D0906C0A6016E
:1002A00095012E193F09400B510B57FD08C01182D3
:1002B0003382228224833583468357831DC081E0A5
:1002C00081833382228288279927DC01821B930B4A
:1002D000A40BB50B84839583A683B7830DC0220F2F
:1002E000331F441F551F24833583468357838281E0
:1002F000938101979383828324813581468157813D
:10030000DA01C9010197A109B1098F5F9F4FAF4F72
:10031000BF4328F30BC0918333822282EA0CFB1C7B
:100320000C1D1D1DE482F5820683178383E0808304
:10033000248135814681578157FF1AC0C901AA27F8
:1003400097FDA095BA2F81709070A070B0705695EF
:10035000479537952795822B932BA42BB52B848318
:100360009583A683B7838281938101969383828349
:10037000DF0101C0D201CD01CDB7DEB7E2E10C94BF
:100380007213A0E2B0E0E7ECF1E00C946213698331
:100390007A838B839C832D833E834F835887E9E048
:1003A000EE2EF12CEC0EFD1ECE010196B7010E943F
:1003B000D2048E010F5E1F4FCE010596B8010E9438
:1003C000D2048A8991E089278A8BC701B801AE01DE
:1003D000475E5F4F0E9475000E94FD03A096E6E015
:1003E0000C947E13A0E2B0E0E8EFF1E00C9462130D
:1003F00069837A838B839C832D833E834F835887C5
:10040000F9E0EF2EF12CEC0EFD1ECE010196B701A6
:100410000E94D2048E010F5E1F4FCE010596B801D7
:100420000E94D204C701B801AE01475E5F4F0E942F
:1004300075000E94FD03A096E6E00C947E13A0E2F6
:10044000B0E0E5E2F2E00C94561369837A838B8383
:100450009C832D833E834F835887CE010196BE0136
:10046000675F7F4F0E94D204CE010596BE016F5E8A
:100470007F4F0E94D2049985923088F0898982301A
:10048000C8F0943019F4823051F404C0843029F457
:10049000923081F487E990E0C6C0923049F420E0C0
:1004A0009A858A89981321E02A87CE010996BBC0D4
:1004B000823049F420E09A858A89981321E02A8BBA
:1004C000CE014196B0C02D843E844F8458886D88FB
:1004D0007E888F88988CEE24FF248701AA24BB2471
:1004E000650140E050E060E070E0E0E0F0E0C10174
:1004F00081709070892BE9F0E60CF71C081D191D1E
:100500009A01AB012A0D3B1D4C1D5D1D80E090E062
:10051000A0E0B0E0E614F7040805190520F481E036
:1005200090E0A0E0B0E0BA01A901480F591F6A1F8E
:100530007B1FAA0CBB1CCC1CDD1C97FE08C081E0F5
:1005400090E0A0E0B0E0A82AB92ACA2ADB2A3196B6
:10055000E032F10549F0660C771C881C991C569412
:10056000479437942794C3CFFA85EA892B893C892D
:100570008B859C85280F391F2E5F3F4F17C0CA01FE
:1005800081709070892B61F016950795F794E79428
:1005900080E090E0A0E0B0E8E82AF92A0A2B1B2BC3
:1005A00076956795579547952F5F3F4F77FDE7CF36
:1005B0000CC0440F551F661F771F17FD4160EE0CDE
:1005C000FF1C001F111F21503040403090E05907A0
:1005D00090E0690790E4790760F32B8F3C8FDB0193
:1005E000CA018F779070A070B07080349105A1051A
:1005F000B10561F447FD0AC0E114F10401051105DC
:1006000029F0405C5F4F6F4F7F4F40781A8EFE1786
:1006100011F081E08A8F4D8F5E8F6F8F78A383E01A
:10062000898FCE0149960E94FD03A096E2E10C94C9
:100630007213A8E1B0E0EFE1F3E00C946213698378
:100640007A838B839C832D833E834F83588789E0F5
:10065000E82EF12CEC0EFD1ECE010196B7010E9492
:10066000D2048E010F5E1F4FCE010596B8010E9485
:10067000D2048985823040F08989823028F0C70110
:10068000B8010E944A0501C08FEF6896E6E00C941D
:100690007E13A8E1B0E0EFE4F3E00C946213698309
:1006A0007A838B839C832D833E834F83588789E095
:1006B000E82EF12CEC0EFD1ECE010196B7010E9432
:1006C000D2048E010F5E1F4FCE010596B8010E9425
:1006D000D2048985823040F08989823028F0C701B0
:1006E000B8010E944A0501C08FEF6896E6E00C94BD
:1006F0007E13A8E1B0E0EFE7F3E00C9462136983A6
:100700007A838B839C832D833E834F83588789E034
:10071000E82EF12CEC0EFD1ECE010196B7010E94D1
:10072000D2048E010F5E1F4FCE010596B8010E94C4
:10073000D2048985823040F08989823028F0C7014F
:10074000B8010E944A0501C081E06896E6E00C9479
:100750007E13ACE0B0E0EFEAF3E00C94661369833B
:100760007A838B839C83CE010196BE016B5F7F4FA2
:100770000E94D2048D81823061F1823050F1843048
:1007800021F48E81882351F12EC02F81388537FDC9
:1007900020C06E812F3131051CF06623F9F023C093
:1007A0008EE190E0821B930B29853A854B855C8511
:1007B00004C056954795379527958A95D2F76623B5
:1007C000B1F050954095309521953F4F4F4F5F4F79
:1007D0000EC020E030E040E050E009C02FEF3FEFD6
:1007E0004FEF5FE704C020E030E040E050E8B9019F
:1007F000CA012C96E2E00C948213DF92EF92FF92F2
:100800000F931F93FC01E480F58006811781D1804E
:100810008081823048F480E090E0A0E1B0E0E82AF6
:10082000F92A0A2B1B2BA5C0843009F49FC0823003
:1008300021F4EE24FF24870105C0E114F104010531
:10084000110519F4E0E0F0E096C0628173819FEF3A
:10085000623879070CF05BC022E83FEF261B370BAC
:100860002A3131052CF020E030E040E050E02AC091
:10087000B801A701022E04C0769567955795479554
:100880000A94D2F781E090E0A0E0B0E004C0880FC5
:10089000991FAA1FBB1F2A95D2F70197A109B10979
:1008A0008E219F21A023B1230097A105B10521F03E
:1008B00081E090E0A0E0B0E09A01AB01282B392B59
:1008C0004A2B5B2BDA01C9018F779070A070B07052
:1008D00080349105A105B10539F427FF09C0205CDA
:1008E0003F4F4F4F5F4F04C0215C3F4F4F4F5F4F13
:1008F000E0E0F0E02030A0E03A07A0E04A07A0E402
:100900005A0710F0E1E0F0E079018A0127C0603871
:10091000710564F5FB01E158FF4FD801C7018F77DE
:100920009070A070B07080349105A105B10539F4C4
:10093000E7FE0DC080E490E0A0E0B0E004C08FE3EB
:1009400090E0A0E0B0E0E80EF91E0A1F1B1F17FFA1
:1009500005C016950795F794E794319687E01695AC
:100960000795F794E7948A95D1F705C0EE24FF2404
:100970008701EFEFF0E06E2F679566276795902F60
:100980009F77D794DD24D7948E2F8695492F462BB9
:10099000582F5D29B701CA011F910F91FF90EF9069
:1009A000DF900895FC01DB01408151812281622F9B
:1009B0006F7770E0221F2227221F9381892F880FD3
:1009C000822B282F30E0991F9927991F11969C930D
:1009D000119721153105A9F54115510561057105DD
:1009E00011F482E037C082E89FEF13969C938E93B8
:1009F00012979A01AB0167E0220F331F441F551F66
:100A00006A95D1F783E08C930DC0220F331F441FEA
:100A1000551F12968D919C911397019713969C9355
:100A20008E931297203080E0380780E0480780E4FA
:100A3000580758F314962D933D934D935C93179755
:100A400008952F3F310579F4411551056105710570
:100A500019F484E08C93089564FF03C081E08C93C3
:100A600012C01C9210C02F57304013963C932E9307
:100A7000129783E08C9387E0440F551F661F771F02
:100A80008A95D1F7706414964D935D936D937C9322
:100A9000179708951F93DC01FB019C91923008F495
:100AA00047C08081823008F443C0943051F41196DD
:100AB0001C91843099F58181682F70E0611B710968
:100AC0003FC0843021F0923031F48230B9F181811D
:100AD000882389F12DC011961C9111978230F1F075
:100AE00081811817D9F412962D913C911397828128
:100AF00093818217930794F028173907BCF0149656
:100B00008D919D910D90BC91A02D248135814681C0
:100B10005781281739074A075B0718F4112341F05A
:100B20000AC082179307A407B50740F4112319F0F0
:100B300061E070E005C06FEF7FEF02C060E070E041
:100B4000CB011F910895DF93CF93CDB7DEB7EAE3D2
:100B5000F0E08FEF8083E7E3F0E080EE8083E4E372
:100B6000F0E08FE08083E1E3F0E01082EBE3F0E07F
:100B70001082E8E3F0E01082E5E3F0E08FEF80839D
:100B8000E2E3F0E01082CF91DF910895DF93CF93FD
:100B9000CDB7DEB728970FB6F894DEBF0FBECDBF36
:100BA0008A836B834C8319828B81883008F0F4C070
:100BB0008C81813009F072C08A81282F30E038871B
:100BC0002F838F8198858130910549F12F81388558
:100BD000223031052CF48F819885009761F05BC03D
:100BE0002F8138852230310571F18F8198858330CE
:100BF0009105E9F150C0AAE3B0E0EAE3F0E08081BA
:100C0000482F8B81282F30E081E090E0022E02C037
:100C1000880F991F0A94E2F7842B8C93BFC0A7E337
:100C2000B0E0E7E3F0E08081482F8B81282F30E0AF
:100C300081E090E0022E02C0880F991F0A94E2F72B
:100C4000842B8C93ABC0A4E3B0E0E4E3F0E08081BC
:100C5000482F8B81282F30E081E090E0022E02C0E7
:100C6000880F991F0A94E2F7842B8C9397C0A1E315
:100C7000B0E0E1E3F0E08081482F8B81282F30E065
:100C800081E090E0022E02C0880F991F0A94E2F7DB
:100C9000842B8C9383C081E0898380C08C818823DE
:100CA00009F077C08A81282F30E03E832D838D8123
:100CB0009E818130910559F12D813E81223031058F
:100CC0002CF48D819E81009769F060C02D813E815A
:100CD0002230310589F18D819E818330910509F49F
:100CE00040C054C0AAE3B0E0EAE3F0E08081482FBE
:100CF0008B81282F30E081E090E0022E02C0880F27
:100D0000991F0A94E2F7809584238C9347C0A7E348
:100D1000B0E0E7E3F0E08081482F8B81282F30E0BE
:100D200081E090E0022E02C0880F991F0A94E2F73A
:100D3000809584238C9332C0A4E3B0E0E4E3F0E038
:100D40008081482F8B81282F30E081E090E0022EB7
:100D500002C0880F991F0A94E2F7809584238C9330
:100D60001DC0A1E3B0E0E1E3F0E08081482F8B817A
:100D7000282F30E081E090E0022E02C0880F991FFA
:100D80000A94E2F7809584238C9308C081E08983DC
:100D900005C081E0898302C081E08983898128962A
:100DA0000FB6F894DEBF0FBECDBFCF91DF9108958F
:100DB000DF93CF9300D000D00F92CDB7DEB78A83F8
:100DC0006B8319828A81282F30E03D832C838C81AC
:100DD0009D8181309105D1F02C813D8122303105FA
:100DE0002CF48C819D81009761F01FC02C813D8186
:100DF0002230310581F08C819D818330910581F015
:100E000014C0EAE3F0E08B81808311C0E7E3F0E0F7
:100E10008B8180830CC0E4E3F0E08B81808307C08A
:100E2000E1E3F0E08B81808302C081E089838981E6
:100E30000F900F900F900F900F90CF91DF9108952A
:100E4000DF93CF93CDB7DEB728970FB6F894DEBF08
:100E50000FBECDBF8A836B834C8319828B81883010
:100E600008F0F4C08C81813009F072C08A81282F8B
:100E700030E038872F838F8198858130910549F143
:100E80002F813885223031052CF48F819885009789
:100E900061F05BC02F8138852230310571F18F817F
:100EA000988583309105E9F150C0ABE3B0E0EBE306
:100EB000F0E08081482F8B81282F30E081E090E0A6
:100EC000022E02C0880F991F0A94E2F7842B8C939C
:100ED000BFC0A8E3B0E0E8E3F0E08081482F8B8159
:100EE000282F30E081E090E0022E02C0880F991F89
:100EF0000A94E2F7842B8C93ABC0A5E3B0E0E5E362
:100F0000F0E08081482F8B81282F30E081E090E055
:100F1000022E02C0880F991F0A94E2F7842B8C934B
:100F200097C0A2E3B0E0E2E3F0E08081482F8B813C
:100F3000282F30E081E090E0022E02C0880F991F38
:100F40000A94E2F7842B8C9383C081E0898380C06C
:100F50008C81882309F077C08A81282F30E03E8376
:100F60002D838D819E818130910559F12D813E81A6
:100F7000223031052CF48D819E81009769F060C08C
:100F80002D813E812230310589F18D819E81833012
:100F9000910509F440C054C0ABE3B0E0EBE3F0E0EE
:100FA0008081482F8B81282F30E081E090E0022E55
:100FB00002C0880F991F0A94E2F7809584238C93CE
:100FC00047C0A8E3B0E0E8E3F0E08081482F8B81E0
:100FD000282F30E081E090E0022E02C0880F991F98
:100FE0000A94E2F7809584238C9332C0A5E3B0E0A5
:100FF000E5E3F0E08081482F8B81282F30E081E00D
:1010000090E0022E02C0880F991F0A94E2F78095A3
:1010100084238C931DC0A2E3B0E0E2E3F0E0808182
:10102000482F8B81282F30E081E090E0022E02C013
:10103000880F991F0A94E2F7809584238C9308C047
:1010400081E0898305C081E0898302C081E08983D2
:10105000898128960FB6F894DEBF0FBECDBFCF9121
:10106000DF910895DF93CF9300D000D00F92CDB7DA
:10107000DEB78A836B8319828A81282F30E03D8313
:101080002C838C819D8181309105D1F02C813D8113
:10109000223031052CF48C819D81009761F01FC0B6
:1010A0002C813D812230310581F08C819D818330FE
:1010B000910581F014C0EBE3F0E08B81808311C0D7
:1010C000E8E3F0E08B8180830CC0E5E3F0E08B8106
:1010D000808307C0E2E3F0E08B81808302C081E07F
:1010E000898389810F900F900F900F900F90CF916F
:1010F000DF910895DF93CF93CDB7DEB727970FB673
:10110000F894DEBF0FBECDBF8A836B835D834C83B3
:1011100019828C819D81009709F477C08B8188307A
:1011200008F073C08A81282F30E03F832E834E81E0
:101130005F814130510559F18E819F818230910547
:1011400034F42E813F812115310569F05CC04E8158
:101150005F814230510579F18E819F818330910505
:1011600009F43DC050C0E9E3F0E08081282F30E071
:101170008B81882F90E0A90102C0559547958A95EB
:10118000E2F7CA018170EC81FD8180833EC0E6E315
:10119000F0E08081282F30E08B81882F90E0A9013A
:1011A00002C0559547958A95E2F7CA018170EC8196
:1011B000FD8180832AC0E3E3F0E08081282F30E0C6
:1011C0008B81882F90E0A90102C0559547958A959B
:1011D000E2F7CA018170EC81FD81808316C0E0E3F3
:1011E000F0E08081282F30E08B81882F90E0A901EA
:1011F00002C0559547958A95E2F7CA018170EC8146
:10120000FD81808302C081E08983898127960FB6A2
:10121000F894DEBF0FBECDBFCF91DF910895DF936D
:10122000CF93CDB7DEB7A2970FB6F894DEBF0FBE4F
:10123000CDBF8FEF8983CE0105969F8F8E8FE8EB10
:10124000F0E0F9A3E8A3F0E1FAA3E8A1F9A1008096
:1012500088A199A1019699A388A3EE8DFF8D0082A4
:101260008E8D9F8D01969F8F8E8F9AA191509AA3FC
:10127000EAA1EE2351F71D8A81E08E8B82E08F8BED
:1012800083E0888F84E0898F85E08A8F86E08B8F6A
:1012900087E08C8F1B8276C08B81282F30E0CE01B7
:1012A0004596FC01E20FF31F908182E0692F40E038
:1012B0000E9420071A8251C08A81282F30E0CE0177
:1012C0004996FC01E20FF31F90819E012C5F3F4F76
:1012D00082E0692FA9010E947A088C818823D1F5C8
:1012E00011C08A81282F30E0CE014996FC01E20F1F
:1012F000F31F90819E012C5F3F4F82E0692FA9016F
:101300000E947A088C81882361F38A81282F30E03B
:101310008B81482F50E0220F331F220F331FCE0145
:101320000196820F931F840F951FFC0134968081D4
:1013300089838B81282F30E0CE014596FC01E20F96
:10134000F31F908182E0692F41E00E942007F9811C
:10135000FD8F1EC08A818F5F8A838A81843008F462
:10136000ABCF8B81282F30E0CE014596FC01E20FF8
:10137000F31F908182E0692F41E00E9420078B815A
:101380008F5F8B838B81843008F486CF89818D8F2A
:101390008D8DA2960FB6F894DEBF0FBECDBFCF9154
:1013A000DF910895DF93CF93CDB7DEB72F970FB6B8
:1013B000F894DEBF0FBECDBF8F8781E065E040E0CF
:1013C0000E94200781E066E040E00E94200780E064
:1013D0006F850E94320881E067E041E00E942007AB
:1013E00080E090E0A0E0B0E48B879C87AD87BE876B
:1013F0006B857C858D859E8520E030E04AEF54E446
:101400000E941F02DC01CB018F839887A987BA87CE
:101410006F81788589859A8520E030E040E85FE338
:101420000E94790388232CF481E090E09E838D83D1
:101430003FC06F81788589859A8520E03FEF4FE72F
:1014400057E40E94190318164CF56B857C858D8531
:101450009E8520E030E040E251E40E941F02DC0162
:10146000CB01BC01CD010E944900DC01CB019E8370
:101470008D830FC088EC90E09C838B838B819C8153
:101480000197F1F79C838B838D819E8101979E83C9
:101490008D838D819E81009769F714C06F81788557
:1014A00089859A850E944900DC01CB019E838D834A
:1014B0008D819E819A83898389819A810197F1F731
:1014C0009A83898381E067E040E00E9420072F969D
:1014D0000FB6F894DEBF0FBECDBFCF91DF91089558
:1014E000DF93CF93CDB7DEB72F970FB6F894DEBF5B
:1014F0000FBECDBF8F8781E065E041E00E942007ED
:1015000081E066E040E00E94200780E06F850E9455
:10151000320881E067E041E00E94200780E090E02F
:10152000A0E0B0E48B879C87AD87BE876B857C8508
:101530008D859E8520E030E04AEF54E40E941F0232
:10154000DC01CB018F839887A987BA876F81788563
:1015500089859A8520E030E040E85FE30E947903C6
:1015600088232CF481E090E09E838D833FC06F81BF
:10157000788589859A8520E03FEF4FE757E40E9400
:10158000190318164CF56B857C858D859E8520E0AA
:1015900030E040E251E40E941F02DC01CB01BC01BB
:1015A000CD010E944900DC01CB019E838D830FC0D9
:1015B00088EC90E09C838B838B819C810197F1F771
:1015C0009C838B838D819E8101979E838D838D81EA
:1015D0009E81009769F714C06F81788589859A8507
:1015E0000E944900DC01CB019E838D838D819E8109
:1015F0009A83898389819A810197F1F79A838983F4
:1016000081E067E040E00E9420072F960FB6F89433
:10161000DEBF0FBECDBFCF91DF910895DF93CF9393
:10162000CDB7DEB72E970FB6F894DEBF0FBECDBF95
:1016300080E090E0A0E2B2E48B879C87AD87BE8714
:101640006B857C858D859E8520E030E04AEF54E4F3
:101650000E941F02DC01CB018F839887A987BA877C
:101660006F81788589859A8520E030E040E85FE3E6
:101670000E94790388232CF481E090E09E838D837F
:101680003FC06F81788589859A8520E03FEF4FE7DD
:1016900057E40E94190318164CF56B857C858D85DF
:1016A0009E8520E030E040E251E40E941F02DC0110
:1016B000CB01BC01CD010E944900DC01CB019E831E
:1016C0008D830FC088EC90E09C838B838B819C8101
:1016D0000197F1F79C838B838D819E8101979E8377
:1016E0008D838D819E81009769F714C06F81788505
:1016F00089859A850E944900DC01CB019E838D83F8
:101700008D819E819A83898389819A810197F1F7DE
:101710009A83898388E30E94D2098CE00E94D209CF
:1017200081E00E94D2092E960FB6F894DEBF0FBE5C
:10173000CDBFCF91DF910895DF93CF9300D00F926B
:10174000CDB7DEB78A836B838B81882F90E000242E
:10175000969587950794969587950794982F802D51
:10176000982F8A81890F8983898180580E94D209A4
:101770000F900F900F90CF91DF910895DF93CF934B
:10178000CDB7DEB727970FB6F894DEBF0FBECDBF3B
:101790009C838B836D834E832F838D81882F90E074
:1017A000880F991F880F991F880F991F8A838A8134
:1017B000805C0E94D20919820EC08981282F30E0F6
:1017C0008B819C81FC01E20FF31F80810E94700AD3
:1017D00089818F5F89838981883078F38E816F81D9
:1017E0000E949C0B8D810E94700A27960FB6F89478
:1017F000DEBF0FBECDBFCF91DF910895DF93CF93B2
:1018000000D00F92CDB7DEB79B838A8319820EC0BA
:101810008981282F30E08A819B81FC01E20FF31F30
:1018200080810E94700A89818F5F89838981282F36
:1018300030E08A819B81FC01E20FF31F80818823C5
:1018400039F70F900F900F90CF91DF910895DF93AC
:10185000CF93CDB7DEB767970FB6F894DEBF0FBE54
:10186000CDBF9F8B8E8B84E1FE013296DF01982FD6
:101870001D929A95E9F719828E899F89009749F5FB
:1018800080E30E94700A41C08981E82FF0E08E89D0
:101890009F892AE030E0B9010E944213AC01405D0B
:1018A0005F4F9F01220F331FCE010196820F931FBE
:1018B000FC013196518340838E899F892AE030E074
:1018C000B9010E944213CB019F8B8E8B89818F5F60
:1018D00089838E899F890097B9F614C08981882FE2
:1018E00090E001979C01220F331FCE010196820FD9
:1018F000931FFC013196808191810E94700A898139
:10190000815089838981882349F767960FB6F894B7
:10191000DEBF0FBECDBFCF91DF9108950F931F9310
:10192000DF93CF93CDB7DEB7CE57D0400FB6F89444
:10193000DEBF0FBECDBF0E94A3050E940E0B2091FB
:10194000C9008FE990E060E040E00E94BE0B20916A
:10195000CA0087EA90E061E04FE00E94BE0B209150
:10196000B7003091C8008FEA90E062E0422F232F49
:101970000E94BE0B0E940F098093CC0081E00E9460
:10198000D2098091B7009091C800692F0E949C0BEA
:1019900082E00E94700A9091C90080E0692F0E9445
:1019A0009C0B80E00E94700A9091CA008FE0692F22
:1019B0000E949C0B81E00E94700AFE01E558FF4FD7
:1019C00080E090E0A8E4B3E480839183A283B383B2
:1019D0008E0109581F4FFE01E558FF4F608171814C
:1019E0008281938120E030E04AEF54E40E941F029C
:1019F000DC01CB01F80180839183A283B383FE01D4
:101A0000E958FF4F608171818281938120E030E04D
:101A100040E85FE30E947903882344F4FE01EB5819
:101A2000FF4F81E090E09183808364C0FE01E9581C
:101A3000FF4F608171818281938120E03FEF4FE70A
:101A400057E40E94190318160CF043C0FE01E55834
:101A5000FF4F608171818281938120E030E040E21C
:101A600051E40E941F02DC01CB018E010B581F4F75
:101A7000BC01CD010E944900DC01CB01F80191833A
:101A800080831FC0FE01ED58FF4F88EC90E09183EA
:101A90008083FE01ED58FF4F808191810197F1F71E
:101AA000FE01ED58FF4F91838083DE01AB58BF4F9D
:101AB000FE01EB58FF4F80819181019711969C9315
:101AC0008E93FE01EB58FF4F808191810097D1F6F4
:101AD00028C08E010B581F4FFE01E958FF4F60814F
:101AE0007181828193810E944900DC01CB01F80160
:101AF00091838083DE01AF58BF4FFE01EB58FF4F4B
:101B00008081918111969C938E93FE01EF58FF4F37
:101B1000808191810197F1F7FE01EF58FF4F91838A
:101B200080838091CD00813009F090C1FE01E3599E
:101B3000FF4F80E090E0AAE7B4E480839183A28322
:101B4000B3838E0107591F4FFE01E359FF4F608198
:101B500071818281938120E030E04AEF54E40E9459
:101B60001F02DC01CB01F80180839183A283B38340
:101B7000FE01E759FF4F608171818281938120E0EE
:101B800030E040E85FE30E947903882344F4FE01DB
:101B9000E959FF4F81E090E09183808364C0FE01AA
:101BA000E759FF4F608171818281938120E03FEF8F
:101BB0004FE757E40E94190318160CF043C0FE01CA
:101BC000E359FF4F608171818281938120E030E091
:101BD00040E251E40E941F02DC01CB018E01095951
:101BE0001F4FBC01CD010E944900DC01CB01F8016F
:101BF000918380831FC0FE01EB59FF4F88EC90E07A
:101C000091838083FE01EB59FF4F80819181019781
:101C1000F1F7FE01EB59FF4F91838083DE01A95953
:101C2000BF4FFE01E959FF4F8081918101971196C5
:101C30009C938E93FE01E959FF4F8081918100971B
:101C4000D1F627C08E0109591F4FFE01E759FF4FFA
:101C500060817181828193810E944900DC01CB0106
:101C6000F80191838083DE01AD59BF4FFE01E95930
:101C7000FF4F808191818D939C93FE01ED59FF4F21
:101C8000808191810197F1F7FE01ED59FF4F91831A
:101C9000808381E00E94D20985E060E00E949C0B75
:101CA00080E690E00E94FE0B87E061E00E949C0BC2
:101CB0008091CE00882F90E00E94270C8DE20E9438
:101CC000700A8091CF00882F90E00E94270C87E057
:101CD0008093B7001092C8001092C9001092CA00F9
:101CE0001092CD00FE01E15AFF4F80E090E0AAEF94
:101CF000B4E480839183A283B3838E01055A1F4F7E
:101D0000FE01E15AFF4F608171818281938120E061
:101D100030E04AEF54E40E941F02DC01CB01F801DD
:101D200080839183A283B383FE01E55AFF4F6081D4
:101D300071818281938120E030E040E85FE30E947E
:101D40007903882344F4FE01E75AFF4F81E090E0D5
:101D50009183808364C0FE01E55AFF4F60817181E9
:101D60008281938120E03FEF4FE757E40E941903FF
:101D700018160CF043C0FE01E15AFF4F60817181DB
:101D80008281938120E030E040E251E40E941F0212
:101D9000DC01CB018E01075A1F4FBC01CD010E940F
:101DA0004900DC01CB01F801918380831FC0FE0153
:101DB000E95AFF4F88EC90E091838083FE01E95A55
:101DC000FF4F808191810197F1F7FE01E95AFF4FA2
:101DD00091838083DE01A75ABF4FFE01E75AFF4F70
:101DE00080819181019711969C938E93FE01E75A11
:101DF000FF4F808191810097D1F628C08E01075A4C
:101E00001F4FFE01E55AFF4F6081718182819381EE
:101E10000E944900DC01CB01F80191838083DE013F
:101E2000AB5ABF4FFE01E75AFF4F80819181119657
:101E30009C938E93FE01EB5AFF4F80819181019715
:101E4000F1F7FE01EB5AFF4F918380838091CE0022
:101E5000853029F08091CF00853009F049C3FE011B
:101E6000EF5AFF4F80E090E0AAE7B4E480839183CB
:101E7000A283B3838E01035B1F4FFE01EF5AFF4F16
:101E8000608171818281938120E030E04AEF54E4E7
:101E90000E941F02DC01CB01F80180839183A283A1
:101EA000B383FE01E35BFF4F608171818281938187
:101EB00020E030E040E85FE30E947903882344F4A7
:101EC000FE01E55BFF4F81E090E09183808364C079
:101ED000FE01E35BFF4F608171818281938120E08D
:101EE0003FEF4FE757E40E94190318160CF043C068
:101EF000FE01EF5AFF4F608171818281938120E062
:101F000030E040E251E40E941F02DC01CB018E016F
:101F1000055B1F4FBC01CD010E944900DC01CB01D4
:101F2000F801918380831FC0FE01E75BFF4F88ECBF
:101F300090E091838083FE01E75BFF4F8081918178
:101F40000197F1F7FE01E75BFF4F91838083DE018C
:101F5000A55BBF4FFE01E55BFF4F8081918101973B
:101F600011969C938E93FE01E55BFF4F80819181DA
:101F70000097D1F627C08E01055B1F4FFE01E35B82
:101F8000FF4F60817181828193810E944900DC0151
:101F9000CB01F80191838083DE01A95BBF4FFE0175
:101FA000E55BFF4F808191818D939C93FE01E95BFE
:101FB000FF4F808191810197F1F7FE01E95BFF4FAF
:101FC0009183808381E00E94D20984E060E00E94D6
:101FD0009C0B89E690E00E94FE0B87E08093B7009F
:101FE0001092C800FE01ED5BFF4F80E090E0AAEF89
:101FF000B4E480839183A283B3838E01015C1F4F7D
:10200000FE01ED5BFF4F608171818281938120E051
:1020100030E04AEF54E40E941F02DC01CB01F801DA
:1020200080839183A283B383FE01FF9660817181D7
:102030008281938120E030E040E85FE30E947903F1
:1020400088232CF481E090E09EAF8DAF46C0FE0166
:10205000FF96608171818281938120E03FEF4FE79D
:1020600057E40E941903181664F5FE01ED5BFF4F5B
:10207000608171818281938120E030E040E251E40F
:102080000E941F02DC01CB01BC01CD010E9449006E
:10209000DC01CB019EAF8DAF0FC088EC90E09CAF10
:1020A0008BAF8BAD9CAD0197F1F79CAF8BAF8DAD36
:1020B0009EAD01979EAF8DAF8DAD9EAD009769F738
:1020C00016C0FE01FF9660817181828193810E941A
:1020D0004900DC01CB019EAF8DAF8DAD9EAD9AAFB7
:1020E00089AF89AD9AAD0197F1F79AAF89AF809129
:1020F000CE00853009F0FCC080E090E0AAE7B4E4AF
:102100008DAB9EABAFABB8AF6DA97EA98FA998ADD3
:1021100020E030E04AEF54E40E941F02DC01CB01D2
:1021200089AB9AABABABBCAB69A97AA98BA99CA9CB
:1021300020E030E040E85FE30E94790388232CF43C
:1021400081E090E098AB8FA73FC069A97AA98BA9DD
:102150009CA920E03FEF4FE757E40E9419031816AF
:102160004CF56DA97EA98FA998AD20E030E040E242
:1021700051E40E941F02DC01CB01BC01CD010E9491
:102180004900DC01CB0198AB8FA70FC088EC90E031
:102190009EA78DA78DA59EA50197F1F79EA78DA758
:1021A0008FA598A9019798AB8FA78FA598A900979D
:1021B00069F714C069A97AA98BA99CA90E94490052
:1021C000DC01CB0198AB8FA78FA598A99CA78BA703
:1021D0008BA59CA50197F1F79CA78BA781E00E9496
:1021E000D20980E060E00E949C0B82E790E00E94B0
:1021F000FE0B84E061E00E949C0B81E890E00E946D
:10220000FE0B80E090E0AAE7B5E48FA398A7A9A70A
:10221000BAA76FA178A589A59AA520E030E04AEF7A
:1022200054E40E941F02DC01CB018BA39CA3ADA34D
:10223000BEA36BA17CA18DA19EA120E030E040E86F
:102240005FE30E94790388232CF481E090E09AA355
:1022500089A33FC06BA17CA18DA19EA120E03FEF8F
:102260004FE757E40E94190318164CF56FA178A5A3
:1022700089A59AA520E030E040E251E40E941F02C7
:10228000DC01CB01BC01CD010E944900DC01CB0186
:102290009AA389A30FC088EC90E098A38F8F8F8DAD
:1022A00098A10197F1F798A38F8F89A19AA101971F
:1022B0009AA389A389A19AA1009769F714C06BA179
:1022C0007CA18DA19EA10E944900DC01CB019AA3B3
:1022D00089A389A19AA19E8F8D8F8D8D9E8D019747
:1022E000F1F79E8F8D8F1092CE001092CF0000C11B
:1022F0008091CF00853009F0FBC080E090E0AAE734
:10230000B4E4898F9A8FAB8FBC8F698D7A8D8B8D5A
:102310009C8D20E030E04AEF54E40E941F02DC0173
:10232000CB018D8B9E8BAF8BB88F6D897E898F890A
:10233000988D20E030E040E85FE30E947903882335
:102340002CF481E090E09C8B8B8B3FC06D897E8963
:102350008F89988D20E03FEF4FE757E40E941903E3
:1023600018164CF5698D7A8D8B8D9C8D20E030E0B0
:1023700040E251E40E941F02DC01CB01BC01CD010F
:102380000E944900DC01CB019C8B8B8B0FC088EC39
:1023900090E09A8B898B89899A890197F1F79A8BBA
:1023A000898B8B899C8901979C8B8B8B8B899C89D2
:1023B000009769F714C06D897E898F89988D0E9476
:1023C0004900DC01CB019C8B8B8B8B899C89988B82
:1023D0008F878F8598890197F1F7988B8F8781E098
:1023E0000E94D20980E060E00E949C0B88E890E0A7
:1023F0000E94FE0B84E061E00E949C0B81E890E06B
:102400000E94FE0B80E090E0AAE7B5E48B879C87F2
:10241000AD87BE876B857C858D859E8520E030E00D
:102420004AEF54E40E941F02DC01CB018F8398879E
:10243000A987BA876F81788589859A8520E030E001
:1024400040E85FE30E94790388232CF481E090E068
:102450009E838D833FC06F81788589859A8520E032
:102460003FEF4FE757E40E94190318164CF56B85B0
:102470007C858D859E8520E030E040E251E40E941D
:102480001F02DC01CB01BC01CD010E944900DC012F
:10249000CB019E838D830FC088EC90E09C838B835F
:1024A0008B819C810197F1F79C838B838D819E8129
:1024B00001979E838D838D819E81009769F714C05B
:1024C0006F81788589859A850E944900DC01CB015E
:1024D0009E838D838D819E819A83898389819A8150
:1024E0000197F1F79A8389831092CE001092CF0062
:1024F0008091CB008823E1F18091B70081508093D7
:10250000B7008091CC00893049F48091C8008130B7
:1025100029F48091C80081508093C8008091CC003C
:10252000833049F48091C800882329F48091C80041
:102530008F5F8093C8008091CC00873049F48091F0
:10254000C900813029F48091C90081508093C9006D
:102550008091CC00813009F044C08091C90088236B
:1025600009F03FC08091C9008F5F8093C90039C0D6
:102570008091B7008F5F8093B7008091CC00873047
:1025800049F48091C800813029F48091C8008150BD
:102590008093C8008091CC00813049F48091C800BC
:1025A000882329F48091C8008F5F8093C8008091B0
:1025B000CC00893049F48091CA00813029F480919F
:1025C000CA0081508093CA008091CC00833049F4C6
:1025D0008091CA00882329F48091CA008F5F80937C
:1025E000CA008091B700882371F49091C80080914F
:1025F000C900981741F41092CB008091B7008E5F0C
:102600008093B70014C08091B700882381F4909123
:10261000C8008091C900981751F081E08093CD00E7
:102620001092CB008091CF008F5F8093CF0080917C
:10263000B7008F3079F49091C8008091CA00981744
:1026400049F481E08093CB008091B7008250809361
:10265000B70090C98091B7008F3009F08BC9909175
:10266000C8008091CA00981709F484C981E080935A
:10267000CD0081E08093CB008091CE008F5F80936E
:10268000CE0078C9AA1BBB1B51E107C0AA1FBB1F04
:10269000A617B70710F0A61BB70B881F991F5A95EE
:1026A000A9F780959095BC01CD0108952F923F9296
:1026B0004F925F926F927F928F929F92AF92BF9252
:1026C000CF92DF92EF92FF920F931F93CF93DF93FE
:1026D000CDB7DEB7CA1BDB0B0FB6F894DEBF0FBE5B
:1026E000CDBF09942A88398848885F846E847D84A8
:1026F0008C849B84AA84B984C884DF80EE80FD80AA
:102700000C811B81AA81B981CE0FD11D0FB6F8941F
:0E271000DEBF0FBECDBFED010895F894FFCFE0
:10271E00474F4F4F4F4F414C00454E442047414D80
:10272E004500506C6179657231206973207468655B
:10273E000057696E6E657200506C61796572322059
:10274E00697320746865000000000000000000033B
:10275E000303030303030318181818181818180096
:10276E0000000E0E0E0000070708092F0405062AAA
:08277E000102032D41003D2B77
:00000001FF
